:1000000045C0000060C000005EC000005CC0000091
:100010005AC0000058C0000056C0000054C0000084
:1000200052C0000050C000004EC000004CC0000094
:100030004AC000009FC3000046C0000044C000004A
:1000400042C0000040C000003EC0000055C100009A
:100050003AC0000038C0000036C0000034C00000C4
:1000600032C0000030C000002EC000002CC00000D4
:100070002AC0000028C0000026C0000024C00000E4
:1000800022C0000020C000001EC0000011241FBEBE
:10009000CFEFD0E4DEBFCDBF11E0A0E0B1E0E4E5FA
:1000A000FEE000E00BBF02C007900D92A831B1073F
:1000B000D9F727E0A8E1B1E001C01D92AF35B20742
:1000C000E1F7F1D1C5C69CCFCF93DF93EC01A5D466
:1000D0002091180130911901CE01820F931F8C3DA0
:1000E00045E0940758F42817390758F4E901C65E2B
:1000F000DE4F909319018093180105C0C0E0D0E055
:1001000002C0C0E0D0E050D5CE01DF91CF9108957C
:100110000895FC010396928381832FEF3FEF348390
:100120002383968385839087878310820895FC01BB
:10013000118610860895CF93DF93FC01DB012181A6
:100140003281E9018A819B8113969C938E93129749
:100150008181928115969C938E9314978A819B81BD
:10016000EC017D836C83E9017B836A837283618305
:100170001996FC93EE93189780818F5F8083DF91AF
:10018000CF910895CF93DF93EB01488159814F3F81
:100190002FEF520731F4DC011796ED91FC9118977F
:1001A00017C0FC013396DC0115962D913C911697F2
:1001B000D9012D913C914217530750F00280F381F1
:1001C000E02DA281B3812D913C9142175307B0F7E6
:1001D000A281B381BB83AA831596DC93CE93149737
:1001E000FD83EC83D383C28399878887FC012081B8
:1001F0002F5F2083DF91CF910895FC01A281B3810D
:100200008481958115969C938E931497A481B581D2
:100210008281938113969C938E931297A085B185CA
:1002200011968D919C9112978E179F0731F48481BE
:10023000958112969C938E931197118610868C91BE
:1002400081508C93089580EA84B98FE585B981E562
:100250008CBD789408958EBD0DB407FEFDCF8EB58C
:100260000895CF93DF93D82FC92F892FF4DF8D2FD7
:10027000F2DF8D2F9C2FDF91CF910895CF92DF92E7
:10028000EF92FF926B017C01C701EBDFC601E9DF52
:10029000C701B601FF90EF90DF90CF9008950DB4A5
:1002A00007FEFDCF8EB50895CF93DF93F8DFC82FFB
:1002B000D0E0DC2FCC27F3DF9E01280F311DC901D0
:1002C000DF91CF910895CF92DF92EF92FF92ECDF12
:1002D0006C01E12CF12C7601DD24CC24E5DFA701B3
:1002E0009601280F391F411D511DCA01B901FF9008
:1002F000EF90DF90CF9008951F920F920FB60F925C
:1003000011240BB60F922F933F934F935F936F93EC
:100310007F938F939F93AF93BF93EF93FF93D3DF1D
:1003200060935A0770935B0780935C0790935D0717
:10033000FF91EF91BF91AF919F918F917F916F91BD
:100340005F914F913F912F910F900BBE0F900FBE79
:100350000F901F90189580915E07813009F06FC053
:1003600000991AC085B1807F816085B96091FE06D1
:100370007091FF0680E090E081DF60E070E0CB01EB
:100380007DDF6091FC067091FD0680E090E076DFF5
:1003900085B1807F85B953C001991BC085B1807F2D
:1003A000816085B96091FE067091FF0680E090E063
:1003B00065DF61E070E080E090E060DF6091FC0666
:1003C0007091FD0680E090E059DF85B1807F85B9AE
:1003D00036C0029916C085B1807F826085B9609170
:1003E000FA067091FB0680E090E048DF6091F80625
:1003F0007091F90680E090E041DF85B1807F85B99A
:100400001EC0039929C085B1807F846085B9609141
:1004100002017091030180E090E030DF6091F60608
:100420007091F70680E090E029DF60910001709103
:10043000010180E090E022DF85B1807F85B9809165
:100440005E07882319F0813029F4089581E08093B4
:100450005E07089510925E07089510925E077BDF95
:1004600084E690E022D4FBCFAF92BF92CF92DF928E
:10047000EF92FF920F93A12CB12CC12CD12CE12C27
:10048000F12C082F20E030E045E550E066E071E017
:100490008DE292E0A6D10F91FF90EF90DF90CF9088
:1004A000BF90AF90089511B88FEF82B984B915B895
:1004B00087B918B81AB88BB981E0D6DFC4DE84D208
:1004C00080E090E0089531E1FC013083319722E231
:1004D00020833197A3E3A0833197608331977083A2
:1004E00031971082319760E860833197108231979D
:1004F00062E06083319763E06083319764E06083FA
:10050000319765E06083319766E06083319767E0FB
:100510006083319768E06083319769E06083319749
:1005200060E1608331973083319732E130833197D6
:1005300033E13083319734E13083319735E13083D3
:10054000319736E13083319737E13083319738E1A5
:100550003083319739E13083319730E230833197FE
:1005600031E2308331972083319723E22083319722
:10057000408331975083319726E22083319727E2D9
:100580002083319728E22083319729E22083319715
:1005900020E32083319721E32083869708951092EA
:1005A00089008CE7809388008BE080938100EFE6E0
:1005B000F0E0808182608083A0915807B091590754
:1005C000CD91CDBFDD91DEBFFF91EF91DF91CF9156
:1005D000BF91AF919F918F917F916F915F914F915B
:1005E0003F912F911F910F91FF90EF90DF90CF904F
:1005F000BF90AF909F908F907F906F905F904F9043
:100600003F902F901F900F900FBE0F90089581E0A4
:1006100008950F920FB6F8940F921F9211242F9203
:100620003F924F925F926F927F928F929F92AF9282
:10063000BF92CF92DF92EF92FF920F931F932F936F
:100640003F934F935F936F937F938F939F93AF935A
:10065000BF93CF93DF93EF93FF93A0915807B0918F
:1006600059070DB60D920EB60D9270D3A091580792
:10067000B0915907CD91CDBFDD91DEBFFF91EF91D4
:10068000DF91CF91BF91AF919F918F917F916F91AA
:100690005F914F913F912F911F910F91FF90EF909C
:1006A000DF90CF90BF90AF909F908F907F906F9092
:1006B0005F904F903F902F901F900F900FBE0F9024
:1006C00008950F920FB6F8940F921F9211242F9253
:1006D0003F924F925F926F927F928F929F92AF92D2
:1006E000BF92CF92DF92EF92FF920F931F932F93BF
:1006F0003F934F935F936F937F938F939F93AF93AA
:10070000BF93CF93DF93EF93FF93A0915807B091DE
:1007100059070DB60D920EB60D9285D117D3A09143
:100720005807B0915907CD91CDBFDD91DEBFFF9144
:10073000EF91DF91CF91BF91AF919F918F917F9179
:100740006F915F914F913F912F911F910F91FF906A
:10075000EF90DF90CF90BF90AF909F908F907F9061
:100760006F905F904F903F902F901F900F900FBE13
:100770000F900895A6DF1895CF93DF93EC01E091D9
:100780005807F091590793838283809108079091CD
:100790000907C817D90760F4609158077091590785
:1007A00080911E0790911F076E5F7F4FEBDC16C094
:1007B0006091580770915907809120079091210707
:1007C0006E5F7F4FDFDC8091040190910501C817B7
:1007D000D90720F4D0930501C0930401DF91CF9194
:1007E00008954F925F926F927F928F929F92AF92F5
:1007F000BF92CF92DF92EF92FF920F931F93CF930E
:10080000DF935C014B013A01290181E290E05CDC5D
:10081000EC01892B09F4C6C0C114D10409F0BEC093
:10082000C30152DC988F8F8B009719F4CE0170DCD6
:10083000B9C0A30165EA70E0F5D2930121503109F6
:100840008F89988D3C01620E731E48E050E0B40120
:10085000CE014996EED218A2102F043008F013E012
:100860001E8B6E0182E0C80ED11CC60160DCCE0179
:100870000C965DDCD987C88784E090E0811B9109E4
:100880009D878C87DB8BCA8BA201B501C3011BDE60
:1008900099838883E114F10419F0F701D183C083AF
:1008A0000FB6F8940F9280910A078F5F80930A0722
:1008B0008091580790915907892B69F5D093590772
:1008C000C093580780910A078130A1F584E397E02F
:1008D00020DC8DE397E01DDC86E497E01ADC8FE4F2
:1008E00097E017DC8BE297E014DC82E297E011DC02
:1008F00085E197E00EDC8CE097E00BDC8BE297E083
:10090000909321078093200782E297E090931F073E
:1009100080931E070FC08091050781110BC0E091E5
:100920005807F09159078689081720F0D093590786
:10093000C09358078E8990910707981710F48093F9
:100940000707909100079F5F90930007909106071B
:10095000981710F48093060790E09C01220F331F34
:10096000220F331F220F331F820F931FB6018C5C9F
:10097000984FE1DB0F900FBE80910507882351F05F
:10098000E0915807F09159078689801728F441DED5
:1009900081E009C081E007C081E005C0D88ECF8A20
:1009A000C60147CF8FEFDF91CF911F910F91FF903D
:1009B000EF90DF90CF90BF90AF909F908F907F90FF
:1009C0006F905F904F900895AF92BF92CF92DF9259
:1009D000EF92FF920F93A12CB12CC12CD12CE12CC2
:1009E000F12C00E020E030E045E550E063E171E00B
:1009F00080E796E0F6DE813041F4F89480930507B5
:100A00001092090710920807CADD0F91FF90EF902E
:100A1000DF90CF90BF90AF900895809104078F5FD3
:100A20008093040708950F931F93CF93DF938091D2
:100A300004078111AFC080910807909109070196C2
:100A40009093090780930807809108079091090700
:100A5000892B99F5809120079091210720911E07FD
:100A600030911F07309321072093200790931F0791
:100A700080931E07809101078F5F80930107E091AB
:100A80002007F09121078081811107C08FEF9FEF30
:100A9000909305018093040110C0E0912007F0912C
:100AA00021070580F681E02D0680F781E02D828107
:100AB0009381909305018093040120910807309160
:100AC000090780910401909105012817390708F45E
:100AD00066C0E0912007F09121078081882399F07A
:100AE000E0912007F09121070580F681E02DC68175
:100AF000D7818A819B8120910807309109072817A7
:100B00003907F8F419C08FEF9FEF90930501809398
:100B1000040145C0E0912007F09121070580F6818E
:100B2000E02DC681D7818A819B8120910807309171
:100B300009072817390728F49093050180930401C9
:100B40002EC08E010E5F1F4FC80157DB8C899D8917
:100B5000892B19F0CE010C9650DB2E898091060767
:100B6000821710F42093060730E0C901880F991FFF
:100B7000880F991F880F991F820F931FB8018C5CF3
:100B8000984FD9DAE0912007F091210780818111F7
:100B9000C1CFB9CF809103078F5F80930307DF91A7
:100BA000CF911F910F910895CF92DF92EF92FF9214
:100BB0000F931F93CF93DF930FB6F8940F9280910A
:100BC00004078150809304078091040781115FC05E
:100BD00080910A0781112FC05DC0D7011596ED9154
:100BE000FC911697C681D781CE010C9606DB8E014B
:100BF0000E5F1F4FC80101DB2E8980910607821707
:100C000010F42093060730E0C901880F991F880F60
:100C1000991F880F991F820F931FB8018C5C984F02
:100C20008ADAE0915807F09159079E8986899817CA
:100C300058F0DC2C09C0D12C0F2EF5E1EF2EF7E097
:100C4000FF2EF02DCC24C394F70180818111C5CFF4
:100C500080910307882379F080910307882391F01E
:100C6000E2DE8091030781508093030780910307A0
:100C70008111F6CF07C0F1E0DF1621F08091020765
:100C8000813039F410920207C4DC81E003C080E0B7
:100C900001C080E00F900FBEDF91CF911F910F91A7
:100CA000FF90EF90DF90CF900895CF93DF93EC010A
:100CB000892B91F0B2DE8091080790910907C80F47
:100CC000D91F8091580790915907029696DACE0164
:100CD00053DD6ADF811101C09CDCDF91CF91089563
:100CE0000F2EFCE0EF2EF7E0FF2EF02DC4E3D7E04F
:100CF00080910B07882329F190DED7011C9154DFE6
:100D00001123F9F00FB6F8940F92D7011596ED91D3
:100D1000FC91169706811781C80102966EDA8091C0
:100D20000A07815080930A0780910B0781508093B6
:100D30000B070F900FBEF8018789908DE9D9C80184
:100D4000E7D988818230A0F264DCD2CF8091040799
:100D5000811113C08091060790E0FC01EE0FFF1F88
:100D6000EE0FFF1FEE0FFF1F8E0F9F1FFC01EC5CAD
:100D7000F84F8081882329F01BC081E0809302070F
:100D80000895809106078150809306078091060799
:100D900090E0FC01EE0FFF1FEE0FFF1FEE0FFF1F95
:100DA0008E0F9F1FFC01EC5CF84F8081882349F374
:100DB0008091060790E09C01220F331F220F331F02
:100DC000220F331F280F391FD901AC5CB84F119681
:100DD000ED91FC9112970280F381E02D1296FC9325
:100DE000EE931197295C384FE217F30729F422811B
:100DF0003381FD0132832183FC01EE0FFF1FEE0FD3
:100E0000FF1FEE0FFF1F8E0F9F1FFC01EC5CF84FC2
:100E10000180F281E02D868197819093590780931C
:100E200058070895DC0101C06D9341505040E0F730
:100E30000895FB01DC014150504048F001900D92B3
:100E40000020C9F701C01D9241505040E0F70895BD
:040E5000F894FFCF44
:100E5400F8000100FFFF544D61737465725F5461C3
:080E6400736B0049444C45008A
:00000001FF
